:03000000020B27C9
:0C0B2700787FE4F6D8FD758112020948C1
:1009DE00535049204D61737465720052756E6E6985
:1009EE006E670053656E64696E67205072696D653F
:1009FE00730057616974696E6720526573756C7404
:100A0E000053756D206973205072696D65005375C2
:100A1E006D204E6F74205072696D6500556E65784D
:0B0A2E007065637465642056616C0005
:100A3900E4F5A0C282C280C2817F38FE120AFA128E
:100A49000AA87F067E00120AFA120AA87F0C7E0005
:100A5900120AFA120AA87F017E00120AFA120AA8DB
:070A69007F807E00020AFA03
:070AA500120AFA7F047E0033
:100AAC00E4FDFCC3ED9FEC9E5015E4FBFA0BBB0080
:0F0ABC00010ABA01F8BB7EF50DBD00010C80E404
:010ACB002208
:100800008E0E8F0F8B108A1189127C277D10120893
:10081000F3EF24301208BFAE0EAF0F7C277D10120D
:1008200008F37E037FE8CFCDCFCECCCE1208F3EF16
:100830002430AB10AA11A9129000011208D1AE0EFB
:10084000AF0F7C037DE81208F37E007F64CFCDCF2D
:10085000CECCCE1208F3EF2430AB10AA11A912901F
:1008600000021208D1AE0EAF0F7C007D641208F3B7
:100870007E007F0ACFCDCFCECCCE1208F3EF24304E
:10088000AB10AA11A9129000031208D1AE0EAF0F3F
:100890007C007D0A1208F3ED2430AB10AA11A912D6
:0608A0009000040208D1E3
:090AF1007F01120AFA7F807E00E9
:100AFA00C280C281D2828FA07F0A7E00120AACC253
:020B0A00822245
:090B0C007FF47E01120AAC7F2E79
:100B1500D280C281D2828FA07F0A7E00120AACC227
:020B250082222A
:100ACC008B0B8A0C890DAB0BAA0CA90D1208A66016
:100ADC0013050DE50D7002050C14F91208A6FF1292
:050AEC000B1580E22261
:100A70007F0A7E00120AAC7F80120AA57BFF7A09EA
:100A800079DE120ACC7FC07E00120AA57BFF7A09AC
:100A900079E9120ACC120B0C120B0C120B0C7FF41E
:050AA0007E01020AAC1A
:0A0B33008FC5E5C430E7FBAFC52213
:10094800750907750A0D120A39120A7075C37F7F77
:10095800F47E01120AAC1E120AF17BFF7A0979F1C2
:10096800120ACC7FE87E03120AACAF09120B337F60
:10097800E8120AACAF0A120B337FE8120AAC7FC048
:100988007E00120AFA7BFF7A0A7900120ACC7FDC11
:100998007E05120AACE4FF120B338F087E00120AA0
:1009A800F1E508B401087BFF7A0A790F800BE508A6
:1009B8007BFFB402097A0A791C120ACC80167A0ADB
:1009C800792A120ACC7FC07E00120AFAE508243080
:0609D800FF120B1580FE6A
:1008A600BB010689828A83E0225002E722BBFE0250
:0908B600E32289828A83E4932283
:1008BF00BB010689828A83F0225002F722BBFE0118
:0208CF00F32212
:1008D100F8BB010DE58229F582E5833AF583E8F05D
:1008E100225006E92582C8F622BBFE05E92582C809
:0208F100F222F1
:1008F300BC000BBE0029EF8DF084FFADF022E4CCE9
:10090300F875F008EF2FFFEE33FEEC33FCEE9DECB1
:10091300984005FCEE9DFE0FD5F0E9E4CEFD22EDF7
:10092300F8F5F0EE8420D21CFEADF075F008EF2F41
:10093300FFED33FD4007985006D5F0F222C398FD32
:050943000FD5F0EA22CF
:00000001FF
