:03000000020B4CA4
:0C0B4C00787FE4F6D8FD758132020B932F
:100BD80053504920536C6176650057616974696E9A
:100BE800670057616974696E6720446174610047E2
:100BF8006F7420446174613A004D41432053756D10
:100C08003A0053756D206973205072696D65004E06
:0F0C18006F74205072696D6500000000000000CD
:100CE5000312000070031500007103180000720361
:100CF5001B000073031E0000740321000075030F21
:060D0500000052010E0087
:100C2700E4F5A0C282C280C2817F38FE120D39125C
:100C37000CC17F067E00120D39120CC17F0C7E009D
:100C4700120D39120CC17F017E00120D39120CC131
:070C57007F807E00020D39D1
:070CBE00120D397F047E00D6
:100CC500E4FDFCC3ED9FEC9E5015E4FBFA0BBB0065
:0F0CD500010ABA01F8BB7EF50DBD00010C80E4E9
:010CE40022ED
:080A9E007E007B007A0079283C
:100AA6008E2E8F2F8B308A3189327C277D1012094A
:100AB60043EF243012090FAE2EAF2F7C277D101284
:100AC60009437E037FE8CFCDCFCECCCE120943EFCC
:100AD6002430AB30AA31A932900001120921AE2E82
:100AE600AF2F7C037DE81209437E007F64CFCDCF14
:100AF600CECCCE120943EF2430AB30AA31A93290C6
:100B06000002120921AE2EAF2F7C007D641209432C
:100B16007E007F0ACFCDCFCECCCE120943EF243054
:100B2600AB30AA31A932900003120921AE2EAF2FA5
:100B36007C007D0A120943ED2430AB30AA31A9327C
:060B4600900004020921E9
:0B0D2E007E007F01120D397F807E00E7
:100D3900C280C281D2828FA07F0A7E00120CC5C2F6
:020D4900822204
:090D4B007FF47E01120CC57F2E1D
:100D5400D280C281D2828FA07F0A7E00120CC5C2CB
:020D64008222E9
:060C93007B007A007928C5
:100C99008B2E8A2F8930AB2EAA2FA9301208F66025
:100CA900130530E5307002052F14F91208F6FF120A
:050CB9000D5480E22251
:0E0D6600E4FFFE0FBF00010EBE13F8BF88F5BC
:010D7400225C
:100D0C00EFC394025002C3227E02EFC313FDEED355
:100D1C009D500DEF8EF084E5F07002C3220E80EA38
:010D2C00D3F3
:010D2D0022A3
:100C5E007F0A7E00120CC57F80120CBE7BFF7A0BC2
:100C6E0079D8120C997FC07E00120CBE7BFF7A0BD6
:100C7E0079E2120C99120D4B120D4B120D4B7FF4A3
:050C8E007E01020CC50F
:1009980078287C007D007BFF7A0C79217E007F0619
:1009A8001208D0120C27120C5E75C36F7FF47E01FB
:1009B800120CC51E120D307BFF7A0B79EA120C99C6
:1009C800E5C430E7FB85C5267408250EF8A626126F
:1009D8000D2E7BFF7A0B79F7120C997FC07E0012DF
:1009E8000D39AF26120A9E120C937FE87E03120C73
:1009F800C5050EE50EB406C8AB12AA13A914E5087E
:100A080012090FAB15AA16A917E50912090FAB1899
:100A1800AA19A91AE50A12090FAB1BAA1CA91DE5F8
:100A28000B12090FAB1EAA1FA920E50C12090FAB68
:100A380021AA22A923E50D12090F120100AB0FAA62
:100A480010A9111208F6752400F525F527120D2EA8
:100A58007BFF7A0C7901120C99AF27120A9E120CAF
:100A6800937FE87E03120CC5AF27120D0C50127548
:100A7800C5017FC07E00120D397BFF7A0C790A8090
:100A88001075C5027FC07E00120D397BFF7A0C7984
:060A980017120C9980FE0C
:1001000078707973E4F551F552F5507A03E687F08B
:10011000A4A2002552F552E5F03551F5510809DA4F
:02012000EC22CF
:100B5800020998E493A3F8E493A34003F68001F212
:100B680008DFF48029E493A3F85407240CC8C3339E
:100B7800C4540F4420C8834004F456800146F6DF6D
:100B8800E4800B0102040810204080900CE5E47E0C
:100B9800019360BCA3FF543F30E509541FFEE49362
:100BA800A360010ECF54C025E060A840B8E493A329
:100BB800FAE493A3F8E493A3C8C582C8CAC583CA54
:100BC800F0A3C8C582C8CAC583CADFE9DEE780BE0C
:010D0B0000E7
:10080000E709F608DFFA8046E709F208DFFA803EDA
:1008100088828C83E709F0A3DFFA8032E309F608C7
:10082000DFFA8078E309F208DFFA807088828C832F
:10083000E309F0A3DFFA806489828A83E0A3F608E3
:10084000DFFA805889828A83E0A3F208DFFA804CBD
:1008500080D280FA80C680D4806980F28033801094
:1008600080A680EA809A80A880DA80E280CA8033FD
:1008700089828A83ECFAE493A3C8C582C8CCC58375
:10088000CCF0A3C8C582C8CCC583CCDFE9DEE78045
:100890000D89828A83E493A3F608DFF9ECFAA9F0C4
:1008A000EDFB2289828A83ECFAE0A3C8C582C8CC1A
:1008B000C583CCF0A3C8C582C8CCC583CCDFEADE33
:1008C000E880DB89828A83E493A3F208DFF980CC95
:1008D00088F0EF60010E4E60C388F0ED2402B4048E
:1008E0000050B9F582EB2402B4040050AF23234535
:0608F00082239008507302
:1008F600BB010689828A83E0225002E722BBFE0200
:09090600E32289828A83E4932232
:10090F00BB010689828A83F0225002F722BBFE01C7
:02091F00F322C1
:10092100F8BB010DE58229F582E5833AF583E8F00C
:10093100225006E92582C8F622BBFE05E92582C8B8
:02094100F222A0
:10094300BC000BBE0029EF8DF084FFADF022E4CC98
:10095300F875F008EF2FFFEE33FEEC33FCEE9DEC61
:10096300984005FCEE9DFE0FD5F0E9E4CEFD22EDA7
:10097300F8F5F0EE8420D21CFEADF075F008EF2FF1
:10098300FFED33FD4007985006D5F0F222C398FDE2
:050993000FD5F0EA227F
:00000001FF
