:03000000020B28C8
:0C0B2800787FE4F6D8FD758120020B6F89
:1008F500535049204D61737465720052756E6E696F
:100905006E6700456E74657220332076616C75657F
:100915007320666F722041202861312C2061322CB2
:10092500206133293A0D0A00456E7465722076619F
:100935006C75653A2000456E7465722033207661CA
:100945006C75657320666F722042202862312C20F9
:1009550062322C206233293A0D0A0053656E6469B0
:100965006E6720446174610057616974696E672020
:10097500526573756C740053756D206973205072E0
:10098500696D650053756D2069732061207072690A
:100995006D65206E756D626572205369722E005308
:1009A500756D204E6F74205072696D650053756DBD
:1009B500206973204E4F542061207072696D652047
:1009C5006E756D626572205369722E00556E65787D
:0B09D5007065637465642056616C005F
:040D5500C101C10017
:100C0000E4F5A0C282C280C2817F38FE120CEC12D1
:100C10000C9A7F067E00120CEC120C9A7F0C7E0060
:100C2000120CEC120C9A7F017E00120CEC120C9A42
:070C30007F807E00020CEC46
:070C9700120CEC7F047E004B
:100C9E00E4FDFCC3ED9FEC9E5015E4FBFA0BBB008C
:0F0CAE00010ABA01F8BB7EF50DBD00010C80E410
:010CBD002214
:1009E0008E148F158B168A1789187C277D10120A92
:1009F000D3EF2430120A9FAE14AF157C277D10125E
:100A00000AD37E037FE8CFCDCFCECCCE120AD3EF70
:100A10002430AB16AA17A918900001120AB1AE141F
:100A2000AF157C037DE8120AD37E007F64CFCDCF63
:100A3000CECCCE120AD3EF2430AB16AA17A9189049
:100A40000002120AB1AE14AF157C007D64120AD305
:100A50007E007F0ACFCDCFCECCCE120AD3EF24308A
:100A6000AB16AA17A918900003120AB1AE14AF155D
:100A70007C007D0A120AD3ED2430AB16AA17A91800
:060A8000900004020AB11F
:090CE3007F01120CEC7F807E0001
:100CEC00C280C281D2828FA07F0A7E00120C9EC26B
:020CFC00822252
:090CFE007FF47E01120C9E7F2E92
:100D0700D280C281D2828FA07F0A7E00120C9EC23F
:020D1700822236
:100CBE008B108A118912AB10AA11A912120A866022
:100CCE00130512E5127002051114F9120A86FF12AD
:050CDE000D0780E22279
:100D1900758920758DCC759850D28ED2ACD2AF2200
:080D4D008F993001FDC2012263
:060C6C007BFF7A09792DDF
:100C72008B108A118912AB10AA11A912120A86606E
:100C8200130512E5127002051114F9120A86FF12F9
:050C92000D4D80E2227F
:090D3900E4FF3000FDC200AF9997
:010D4200228E
:03002300020D29A2
:100D2900309905C299D20132309804C298D2003262
:100BB400E4FEFD120D39AC07120D4DBC0D08741086
:100BC4002EF8E4F6801DECC3943040E7ECD394395E
:100BD40050E1EEC3940350DBAF060E74102FF8A659
:100BE4000480D0E4FE74102EF8E6600D24D0FFEDEE
:0B0BF40075F00AA42FFD0E80ECAF0589
:010BFF0022D3
:100C37007F0A7E00120C9E7F80120C977BFF7A083A
:100C470079F5120CBE7FC07E00120C977BFF7A09E4
:100C57007900120CBE120CFE120CFE120CFE7FF471
:050C67007E01020C9E5D
:0A0D43008FC5E5C430E7FBAFC52201
:10080000D2A9D2AF120D19120C00120C377BFF7A4D
:10081000097908120C72E4F50F120C6C120BB47407
:1008200009250FF8A607050FE50FC3940340EA7BDF
:10083000FF7A09793B120C72750F03120C6C120BC4
:10084000B47409250FF8A607050FE50FC3940640F9
:10085000EA75C37F7FF47E01120C9E1E120CE37BAF
:10086000FF7A097960120CBEE4F50F7FE87E03126F
:100870000C9E7409250FF8E6FF120D43050FE50FD6
:10088000C3940640E67FC07E00120CEC7BFF7A0921
:10089000796D120CBE7FAC7E0D120C9EE4FF120D22
:1008A000438F087E00120CE3E508B401117BFF7A48
:1008B00009797C120CBE7BFF7A0979898032E508C0
:1008C0007BFFB4020F7A0979A4120CBE7BFF7A0970
:1008D00079B2801C7A0979D1120CBE7FC07E0012D9
:1008E0000CECE5082430FF120D077BFF7A0979D163
:0508F000120C7280FEF5
:100B3400020800E493A3F8E493A34003F68001F2CF
:100B440008DFF48029E493A3F85407240CC8C333C2
:100B5400C4540F4420C8834004F456800146F6DF91
:100B6400E4800B0102040810204080900D55E47EBF
:100B7400019360BCA3FF543F30E509541FFEE49386
:100B8400A360010ECF54C025E060A840B8E493A34D
:100B9400FAE493A3F8E493A3C8C582C8CAC583CA78
:100BA400F0A3C8C582C8CAC583CADFE9DEE780BE30
:010D59000099
:100A8600BB010689828A83E0225002E722BBFE026E
:090A9600E32289828A83E49322A1
:100A9F00BB010689828A83F0225002F722BBFE0136
:020AAF00F32230
:100AB100F8BB010DE58229F582E5833AF583E8F07B
:100AC100225006E92582C8F622BBFE05E92582C827
:020AD100F2220F
:100AD300BC000BBE0029EF8DF084FFADF022E4CC07
:100AE300F875F008EF2FFFEE33FEEC33FCEE9DECD0
:100AF300984005FCEE9DFE0FD5F0E9E4CEFD22ED16
:100B0300F8F5F0EE8420D21CFEADF075F008EF2F5F
:100B1300FFED33FD4007985006D5F0F222C398FD50
:050B23000FD5F0EA22ED
:00000001FF
