:03000000020AE809
:0C0AE800787FE4F6D8FD758120020B2F0A
:1008D100535049204D61737465720052756E6E6993
:1008E1006E6700456E746572207468652070726968
:1008F1006D65206E756D626572202761273A200053
:10090100456E74657220746865207072696D65202A
:100911006E756D626572202762273A200053656EFD
:1009210064696E67205072696D65730057616974FF
:10093100696E6720526573756C740053756D20691B
:1009410073205072696D650053756D206973206164
:10095100207072696D65206E756D626572205369D4
:10096100722E0053756D204E6F74205072696D6543
:100971000053756D206973204E4F542061207072B1
:10098100696D65206E756D626572205369722E0006
:0F099100556E65787065637465642056616C00FF
:040D0F00C101C1005D
:100BC000E4F5A0C282C280C2817F38FE120CA61258
:100BD0000C2F7F067E00120CA6120C2F7F0C7E00BD
:100BE000120CA6120C2F7F017E00120CA6120C2FE5
:070BF0007F807E00020CA6CD
:070C2C00120CA67F047E00FC
:100C3300E4FDFCC3ED9FEC9E5015E4FBFA0BBB00F7
:0F0C4300010ABA01F8BB7EF50DBD00010C80E47B
:010C5200227F
:1009A0008E0F8F108B118A1289137C277D10120AEB
:1009B00093EF2430120A5FAE0FAF107C277D101228
:1009C0000A937E037FE8CFCDCFCECCCE120A93EF31
:1009D0002430AB11AA12A913900001120A71AE0FB4
:1009E000AF107C037DE8120A937E007F64CFCDCFE9
:1009F000CECCCE120A93EF2430AB11AA12A91390D9
:100A00000002120A71AE0FAF107C007D64120A93CF
:100A10007E007F0ACFCDCFCECCCE120A93EF24300A
:100A2000AB11AA12A913900003120A71AE0FAF10F6
:100A30007C007D0A120A93ED2430AB11AA12A9138F
:060A4000900004020A719F
:090C9D007F01120CA67F807E008D
:100CA600C280C281D2828FA07F0A7E00120C33C21C
:020CB600822298
:090CB8007FF47E01120C337F2E43
:100CC100D280C281D2828FA07F0A7E00120C33C2F1
:020CD10082227D
:100C53008B0B8A0C890DAB0BAA0CA90D120A4660EB
:100C630013050DE50D7002050C14F9120A46FF1267
:050C73000CC180E2222B
:100CD300758920758DCC759850D28ED2ACD2AF2247
:080D07008F993001FDC20122A9
:100C78008B0B8A0C890DAB0BAA0CA90D120A4660C6
:100C880013050DE50D7002050C14F9120A46FF1242
:050C98000D0780E222BF
:090CF300E4FF3000FDC200AF99DE
:010CFC0022D5
:03002300020CE3E9
:100CE300309905C299D20132309804C298D20032A9
:100B7400E4FEFD120CF3AC07120D07BC0D08740B58
:100B84002EF8E4F6801DECC3943040E7ECD394399E
:100B940050E1EEC3940350DBAF060E740B2FF8A69E
:100BA4000480D0E4FE740B2EF8E6600D24D0FFED33
:0B0BB40075F00AA42FFD0E80ECAF05C9
:010BBF002213
:100BF7007F0A7E00120C337F80120C2C7BFF7A0851
:100C070079D1120C537FC07E00120C2C7BFF7A081F
:100C170079DC120C53120CB8120CB8120CB87FF412
:050C27007E01020C3308
:0A0CFD008FC5E5C430E7FBAFC52248
:10080000750907750A0DD2A9D2AF120CD3120BC00D
:10081000120BF77BFF7A0879E4120C78120B748FB5
:10082000097BFF7A097901120C78120B748F0A7513
:10083000C37F7FF47E01120C331E120C9D7BFF7A66
:1008400009791E120C537FE87E03120C33AF091294
:100850000CFD7FE8120C33AF0A120CFD7FE8120C7E
:10086000337FC07E00120CA67BFF7A09792D120C13
:10087000537FDC7E05120C33E4FF120CFD8F087EE3
:1008800000120C9DE508B401117BFF7A09793C1236
:100890000C537BFF7A0979498032E5087BFFB4026B
:1008A0000F7A097964120C537BFF7A097972801CE4
:1008B0007A097991120C537FC07E00120CA6E508CC
:1008C0002430FF120CC17BFF7A097991120C7880D9
:0108D000FE29
:100AF400020800E493A3F8E493A34003F68001F210
:100B040008DFF48029E493A3F85407240CC8C33302
:100B1400C4540F4420C8834004F456800146F6DFD1
:100B2400E4800B0102040810204080900D0FE47E45
:100B3400019360BCA3FF543F30E509541FFEE493C6
:100B4400A360010ECF54C025E060A840B8E493A38D
:100B5400FAE493A3F8E493A3C8C582C8CAC583CAB8
:100B6400F0A3C8C582C8CAC583CADFE9DEE780BE70
:010D130000DF
:100A4600BB010689828A83E0225002E722BBFE02AE
:090A5600E32289828A83E49322E1
:100A5F00BB010689828A83F0225002F722BBFE0176
:020A6F00F32270
:100A7100F8BB010DE58229F582E5833AF583E8F0BB
:100A8100225006E92582C8F622BBFE05E92582C867
:020A9100F2224F
:100A9300BC000BBE0029EF8DF084FFADF022E4CC47
:100AA300F875F008EF2FFFEE33FEEC33FCEE9DEC10
:100AB300984005FCEE9DFE0FD5F0E9E4CEFD22ED56
:100AC300F8F5F0EE8420D21CFEADF075F008EF2FA0
:100AD300FFED33FD4007985006D5F0F222C398FD91
:050AE3000FD5F0EA222E
:00000001FF
