:03000000020B1FD1
:0C0B1F00787FE4F6D8FD758120020B669B
:100BAB0053504920536C6176650057616974696EC7
:100BBB00670057616974696E67204461746100470F
:100BCB006F74205072696D65313A00476F74205015
:100BDB0072696D65323A0053756D3A0053756D202D
:100BEB006973205072696D65004E6F742050726985
:090BFB006D65000000000000001F
:080D2B00011500011600C100D2
:100C0400E4F5A0C282C280C2817F38FE120CEF12CA
:100C14000C9E7F067E00120CEF120C9E7F0C7E0051
:100C2400120CEF120C9E7F017E00120CEF120C9E30
:070C34007F807E00020CEF3F
:070C9B00120CEF7F047E0044
:100CA200E4FDFCC3ED9FEC9E5015E4FBFA0BBB0088
:0F0CB200010ABA01F8BB7EF50DBD00010C80E40C
:010CC1002210
:080A71007E007B007A00790A87
:100A79008E108F118B128A1389147C277D1012090D
:100A890043EF243012090FAE10AF117C277D1012ED
:100A990009437E037FE8CFCDCFCECCCE120943EFF9
:100AA9002430AB12AA13A914900001120921AE1027
:100AB900AF117C037DE81209437E007F64CFCDCF5F
:100AC900CECCCE120943EF2430AB12AA13A914904D
:100AD9000002120921AE10AF117C007D6412094396
:100AE9007E007F0ACFCDCFCECCCE120943EF243082
:100AF900AB12AA13A914900003120921AE10AF1169
:100B09007C007D0A120943ED2430AB12AA13A91403
:060B190090000402092116
:0B0CE4007E007F01120CEF7F807E007D
:100CEF00C280C281D2828FA07F0A7E00120CA2C264
:020CFF0082224F
:090D01007FF47E01120CA27F2E8A
:100D0A00D280C281D2828FA07F0A7E00120CA2C238
:020D1A00822233
:060C70007B007A00790A06
:100C76008B108A118912AB10AA11A9121208F660FC
:100C8600130512E5127002051114F91208F6FF1287
:050C96000D0A80E222BE
:0E0D1C00E4FFFE0FBF00010EBE13F8BF88F506
:010D2A0022A6
:100CC200EFC394025002C3227E02EFC313FDEED3A0
:100CD2009D500DEF8EF084E5F07002C3220E80EA83
:010CE200D33E
:010CE30022EE
:100C3B007F0A7E00120CA27F80120C9B7BFF7A0B2B
:100C4B0079AB120C767FC07E00120C9B7BFF7A0B6C
:100C5B0079B5120C76120D01120D01120D017FF4F4
:050C6B007E01020CA255
:10099800780A7C007D007BFF7A0B79FE7E007F065B
:1009A8001208D0120C04120C3B75C36F7FF47E0141
:1009B800120CA21E120CE67BFF7A0B79BD802EE585
:1009C800C430E7FB85C508200028850815D2001229
:1009D8000CE47BFF7A0B79CA120C767FC07E00127A
:1009E8000CEFAF15120A717B007A00790A120C76A7
:1009F80080CD850816120CE47BFF7A0B79D6120C91
:100A0800767FC07E00120CEFAF16120A71120C70BE
:100A18007FE87E03120CA2E5152516F509120CE4F1
:100A28007BFF7A0B79E2120C76AF09120A71120C6D
:100A3800707FE87E03120CA2AF09120CC250157524
:100A4800C5017FC07E00120CEF7BFF7A0B79E7129D
:100A58000C7680FE75C5027FC07E00120CEF7BFF0E
:090A68007A0B79F4120C7680FE81
:100B2B00020998E493A3F8E493A34003F68001F23F
:100B3B0008DFF48029E493A3F85407240CC8C333CB
:100B4B00C4540F4420C8834004F456800146F6DF9A
:100B5B00E4800B0102040810204080900D2BE47EF2
:100B6B00019360BCA3FF543F30E509541FFEE4938F
:100B7B00A360010ECF54C025E060A840B8E493A356
:100B8B00FAE493A3F8E493A3C8C582C8CAC583CA81
:100B9B00F0A3C8C582C8CAC583CADFE9DEE780BE39
:010D330000BF
:10080000E709F608DFFA8046E709F208DFFA803EDA
:1008100088828C83E709F0A3DFFA8032E309F608C7
:10082000DFFA8078E309F208DFFA807088828C832F
:10083000E309F0A3DFFA806489828A83E0A3F608E3
:10084000DFFA805889828A83E0A3F208DFFA804CBD
:1008500080D280FA80C680D4806980F28033801094
:1008600080A680EA809A80A880DA80E280CA8033FD
:1008700089828A83ECFAE493A3C8C582C8CCC58375
:10088000CCF0A3C8C582C8CCC583CCDFE9DEE78045
:100890000D89828A83E493A3F608DFF9ECFAA9F0C4
:1008A000EDFB2289828A83ECFAE0A3C8C582C8CC1A
:1008B000C583CCF0A3C8C582C8CCC583CCDFEADE33
:1008C000E880DB89828A83E493A3F208DFF980CC95
:1008D00088F0EF60010E4E60C388F0ED2402B4048E
:1008E0000050B9F582EB2402B4040050AF23234535
:0608F00082239008507302
:1008F600BB010689828A83E0225002E722BBFE0200
:09090600E32289828A83E4932232
:10090F00BB010689828A83F0225002F722BBFE01C7
:02091F00F322C1
:10092100F8BB010DE58229F582E5833AF583E8F00C
:10093100225006E92582C8F622BBFE05E92582C8B8
:02094100F222A0
:10094300BC000BBE0029EF8DF084FFADF022E4CC98
:10095300F875F008EF2FFFEE33FEEC33FCEE9DEC61
:10096300984005FCEE9DFE0FD5F0E9E4CEFD22EDA7
:10097300F8F5F0EE8420D21CFEADF075F008EF2FF1
:10098300FFED33FD4007985006D5F0F222C398FDE2
:050993000FD5F0EA227F
:00000001FF
