:03000000020BEF01
:0C0BEF00787FE4F6D8FD758142020C36D8
:100DC20054656D702E3A2000206F4300566F6C748C
:080DD2002E3A2000206D5600AE
:0A0E2000C1000608000000000000F9
:100D3C00E4F5A0C282C280C2817F38FE120DF0128F
:100D4C000D9E7F067E00120DF0120D9E7F0C7E0014
:100D5C00120DF0120D9E7F017E00120DF0120D9EF1
:070D6C007F807E00020DF004
:040D9E007F047E0050
:100DA200E4FDFCC3ED9FEC9E5015E4FBFA0BBB0087
:0F0DB200010ABA01F8BB7EF50DBD00010C80E40B
:010DC100220F
:060A9B007B007A00792DBA
:100AA1008E338F348B358A3689377C277D10120A35
:100AB10012EF24301209DEAE33AF347C277D1012E1
:100AC1000A127E037FE8CFCDCFCECCCE120A12EF31
:100AD1002430AB35AA36A9379000011209F0AE33A4
:100AE100AF347C037DE8120A127E007F64CFCDCF44
:100AF100CECCCE120A12EF2430AB35AA36A93790EC
:100B010000021209F0AE33AF347C007D64120A1288
:100B11007E007F0ACFCDCFCECCCE120A12EF243089
:100B2100AB35AA36A9379000031209F0AE33AF34C2
:100B31007C007D0A120A12ED2430AB35AA36A937A2
:060B41009000040209F01F
:100DF000C280C281D2828FA07F0A7E00120DA2C261
:020E000082224C
:100E0200D280C281D2828FA07F0A7E00120DA2C23E
:020E120082223A
:060D73007B007A00792DDF
:100D79008B338A348935AB33AA34A9351209C56056
:100D8900130535E5357002053414F91209C5FF124A
:050D99000E0280E222C1
:0C0E140075C33F43B104D2AF43C340227A
:080CE0008F428E418D408C3FD4
:100CE800C2007810120A75E48FC53000FDA90EC243
:100CF80000AF42AE41AD40AC3F7808120A758FC5CF
:100D08003000FDAB0EC200E542FF8FC53000FDADDF
:100D18000EEB7B00FA7E00E97810C333CE33CED8D1
:100D2800F92BFFEE3AFE7C00EF2DFFEC3EFE3395EB
:030D3800E0FDFCDF
:010D3B002295
:03004B00020DDAC9
:100DDA00C0E0C0D0E5C454F02480700585C50ED2A9
:060DEA0000D0D0D0E03281
:030E2B00D294223C
:020C7B00AB07C5
:100C7D00E4F53AF539753801F537EF75F010A47EC6
:100C8D00005470FFEE3395E0FDFCEF4480FFED78EE
:100C9D0008120A888F3E8E3D8D3C8C3BE53A253EF1
:100CAD00FFE539353DFEE538353CFDE537353BFC97
:100CBD00C294120CE08F368E358D348C33D294E580
:100CCD0036F536E5355403F535E4F534F533AE3503
:020CDD00AF3630
:010CDF0022F2
:100B4700E4F521F522F523F524120E14120E2B12CB
:020B57000D3C53
:100B59007F04120C7B8E258F26AC25AD26E4120965
:100B69000B7B827A73794E78401208001209448E01
:100B79002B8F2C7F03120C7B8E278F28AC27AD2857
:100B8900E412090B7B827A73794E784012080012BD
:100B990009447C007D0A120A128E298F2A7F807EE1
:100BA90000120DF07BFF7A0D79CE120D79AF2CAEC4
:100BB9002B120A9B120D737BFF7A0D79D6120D79D0
:100BC9007FC07E00120DF07BFF7A0D79C2120D797C
:100BD900AF2AAE29120A9B120D737BFF7A0D79CACF
:030BE900120D7971
:030BEC00020B59A0
:10080000EC4D6011E8497017ED33EC3304600DE4F2
:10081000FCFFFEFD22E933E8330470F80209B01250
:10082000097B58046009E4CC248150062850090251
:1008300009BA2840030209B7C0E0EB4A7044B98006
:1008400006D0E0FB0209A6EF4E701CBD8008EBFF4E
:10085000EAFEE9FD80EBE98DF0A4FEE5F00208E98F
:10086000E9CDF9EAFEEBFFEF89F0A4FCE5F0CE89D3
:10087000F0A42EFFE435F0CD89F0A42DFEE435F090
:100880008067EF4E7005BD80D780C3EF8BF0A4ACBE
:10089000F0EE8BF0A42CFCE435F0F8EF8AF0A42CF9
:1008A000E5F038FCE433CB8DF0A42CFCE5F03BF80C
:1008B000EE8AF0A42CFCE5F038F8E433CF89F0A4FC
:1008C0002CFCE5F038CF3400CE89F0A42FFFE5F002
:1008D0003EFEE433C98DF0A42EFEE5F039CD8AF05A
:1008E000A42FFFE5F03EFEE43DFD33D0E0FB5007D2
:1008F0000BBB000F0209BAEC2CFCEF33FFEE33FE0A
:06090000ED33FD02099237
:1009060075F020800E75F010800575F0087D007E6C
:10091600007F003392D530D503120A67EC334010BE
:10092600EF33FFEE33FEED33FDEC33FCD5F0ED2275
:0E093600E5F0247EA2D513CC92E7CDCEFF22B1
:10094400EDD2E7CD33EC3392D524814006E4FFFEAB
:10095400FDFC22FCE4CFCECDCC24E0501174FF800A
:10096400EDC3CC13CCCD13CDCE13CECF13CF0470A7
:07097400F030D5DE020A6736
:10097B00E9D2E7C933E833F892D5EDD2E7CD33ECC2
:07098B0033FC5002B2D5223B
:10099200EC30E7100FBF000C0EBE00080DBD0004C6
:1009A2000BEB6014A2D5EB13FCED92E7FD2274FF72
:1009B200FCFDFEFF22E480F8A2D574FF13FC7D80CB
:0309C200E480EFDF
:100BFB00020B47E493A3F8E493A34003F68001F2BE
:100C0B0008DFF48029E493A3F85407240CC8C333FA
:100C1B00C4540F4420C8834004F456800146F6DFC9
:100C2B00E4800B0102040810204080900E20E47E2B
:100C3B00019360BCA3FF543F30E509541FFEE493BE
:100C4B00A360010ECF54C025E060A840B8E493A385
:100C5B00FAE493A3F8E493A3C8C582C8CAC583CAB0
:100C6B00F0A3C8C582C8CAC583CADFE9DEE780BE68
:010E2A0000C7
:1009C500BB010689828A83E0225002E722BBFE0230
:0909D500E32289828A83E4932263
:1009DE00BB010689828A83F0225002F722BBFE01F8
:0209EE00F322F2
:1009F000F8BB010DE58229F582E5833AF583E8F03D
:100A0000225006E92582C8F622BBFE05E92582C8E8
:020A1000F222D0
:100A1200BC000BBE0029EF8DF084FFADF022E4CCC8
:100A2200F875F008EF2FFFEE33FEEC33FCEE9DEC91
:100A3200984005FCEE9DFE0FD5F0E9E4CEFD22EDD7
:100A4200F8F5F0EE8420D21CFEADF075F008EF2F21
:100A5200FFED33FD4007985006D5F0F222C398FD12
:050A62000FD5F0EA22AF
:0E0A6700C3E49FFFE49EFEE49DFDE49CFC22A0
:100A7500E8600FECC313FCED13FDEE13FEEF13FF5F
:030A8500D8F12283
:100A8800E8600FEFC333FFEE33FEED33FDEC33FCCC
:030A9800D8F12270
:00000001FF
