:03000000020B5997
:0C0B5900787FE4F6D8FD75812D020BA01A
:100BE50053504920536C6176650057616974696E8D
:100BF500670057616974696E6720446174610047D5
:100C05006F74205072696D65313A00476F742050DA
:100C150072696D65323A0053756D3A0053756D20F2
:100C25006973205072696D65004E6F74205072694A
:090C35006D6500000000000000E4
:100D5600030C0000300311000031031400003201BF
:070D66000800010900C100B3
:100C3E00E4F5A0C282C280C2817F38FE120D291255
:100C4E000CD87F067E00120D29120CD87F0C7E0068
:100C5E00120D29120CD87F017E00120D29120CD80C
:070C6E007F807E00020D29CA
:070CD500120D297F047E00CF
:100CDC00E4FDFCC3ED9FEC9E5015E4FBFA0BBB004E
:0F0CEC00010ABA01F8BB7EF50DBD00010C80E4D2
:010CFB0022D6
:080AAB007E007B007A00792334
:100AB3008E298F2A8B2B8A2C892D7C277D10120956
:100AC30043EF243012090FAE29AF2A7C277D101281
:100AD30009437E037FE8CFCDCFCECCCE120943EFBF
:100AE3002430AB2BAA2CA92D900001120921AE2989
:100AF300AF2A7C037DE81209437E007F64CFCDCF0C
:100B0300CECCCE120943EF2430AB2BAA2CA92D90C7
:100B13000002120921AE29AF2A7C007D6412094329
:100B23007E007F0ACFCDCFCECCCE120943EF243047
:100B3300AB2BAA2CA92D900003120921AE29AF2AB1
:100B43007C007D0A120943ED2430AB2BAA2CA92D7E
:060B5300900004020921DC
:0B0D1E007E007F01120D297F807E0007
:100D2900C280C281D2828FA07F0A7E00120CDCC2EF
:020D3900822214
:090D3B007FF47E01120CDC7F2E16
:100D4400D280C281D2828FA07F0A7E00120CDCC2C4
:020D54008222F9
:060CAA007B007A007923B3
:100CB0008B298A2A892BAB29AA2AA92B1208F6602C
:100CC00013052BE52B7002052A14F91208F6FF1202
:050CD0000D4480E2224A
:0E0D6E00E4FFFE0FBF00010EBE13F8BF88F5B4
:010D7C002254
:100CFC00EFC394025002C3227E02EFC313FDEED366
:100D0C009D500DEF8EF084E5F07002C3220E80EA48
:010D1C00D303
:010D1D0022B3
:100C75007F0A7E00120CDC7F80120CD57BFF7A0B7D
:100C850079E5120CB07FC07E00120CD57BFF7A0B84
:100C950079EF120CB0120D3B120D3B120D3B7FF498
:050CA5007E01020CDCE1
:1009980078237C007D007BFF7A0C79387E007F0607
:1009A8001208D0120C3E120C7575C36F7FF47E01CD
:1009B800120CDC1E120D207BFF7A0B79F7802EE5D6
:1009C800C430E7FB85C521200028852108D2001204
:1009D8000D1E7BFF7A0C7904120CB07FC07E0012CA
:1009E8000D29AF08120AAB7B007A007923120CB0EC
:1009F80080CD852109120D1E7BFF7A0C7910120C0F
:100A0800B07FC07E00120D29AF09120AAB120CAAE2
:100A18007FE87E03120CDC750A0085080B750F0051
:100A2800850910AB0CAA0DA90EE50B12090FAB1125
:100A3800AA12A913E51012090FAB14AA15A9167466
:100A48007B12090F120100AB14AA15A9161208F699
:100A5800751700F518F522120D1E7BFF7A0C791C0C
:100A6800120CB0AF22120AAB120CAA7FE87E031256
:100A78000CDCAF22120CFC501575C5017FC07E003E
:100A8800120D297BFF7A0C7921120CB080FE75C5F6
:100A9800027FC07E00120D297BFF7A0C792E120C82
:030AA800B080FE1D
:07010000E5302531F5322244
:100B6500020998E493A3F8E493A34003F68001F205
:100B750008DFF48029E493A3F85407240CC8C33391
:100B8500C4540F4420C8834004F456800146F6DF60
:100B9500E4800B0102040810204080900D56E47E8D
:100BA500019360BCA3FF543F30E509541FFEE49355
:100BB500A360010ECF54C025E060A840B8E493A31C
:100BC500FAE493A3F8E493A3C8C582C8CAC583CA47
:100BD500F0A3C8C582C8CAC583CADFE9DEE780BEFF
:010D6D000085
:10080000E709F608DFFA8046E709F208DFFA803EDA
:1008100088828C83E709F0A3DFFA8032E309F608C7
:10082000DFFA8078E309F208DFFA807088828C832F
:10083000E309F0A3DFFA806489828A83E0A3F608E3
:10084000DFFA805889828A83E0A3F208DFFA804CBD
:1008500080D280FA80C680D4806980F28033801094
:1008600080A680EA809A80A880DA80E280CA8033FD
:1008700089828A83ECFAE493A3C8C582C8CCC58375
:10088000CCF0A3C8C582C8CCC583CCDFE9DEE78045
:100890000D89828A83E493A3F608DFF9ECFAA9F0C4
:1008A000EDFB2289828A83ECFAE0A3C8C582C8CC1A
:1008B000C583CCF0A3C8C582C8CCC583CCDFEADE33
:1008C000E880DB89828A83E493A3F208DFF980CC95
:1008D00088F0EF60010E4E60C388F0ED2402B4048E
:1008E0000050B9F582EB2402B4040050AF23234535
:0608F00082239008507302
:1008F600BB010689828A83E0225002E722BBFE0200
:09090600E32289828A83E4932232
:10090F00BB010689828A83F0225002F722BBFE01C7
:02091F00F322C1
:10092100F8BB010DE58229F582E5833AF583E8F00C
:10093100225006E92582C8F622BBFE05E92582C8B8
:02094100F222A0
:10094300BC000BBE0029EF8DF084FFADF022E4CC98
:10095300F875F008EF2FFFEE33FEEC33FCEE9DEC61
:10096300984005FCEE9DFE0FD5F0E9E4CEFD22EDA7
:10097300F8F5F0EE8420D21CFEADF075F008EF2FF1
:10098300FFED33FD4007985006D5F0F222C398FDE2
:050993000FD5F0EA227F
:00000001FF
